{
  "address": "0x41CcE3c6c4aB045D62096D871C84037616bB817f",
  "abi": [
    {
      "inputs": [
        {
          "internalType": "address",
          "name": "priceFeed",
          "type": "address"
        }
      ],
      "stateMutability": "nonpayable",
      "type": "constructor"
    },
    {
      "inputs": [],
      "name": "FundMe_NotOwner",
      "type": "error"
    },
    {
      "inputs": [],
      "name": "cheaperWithdraw",
      "outputs": [],
      "stateMutability": "payable",
      "type": "function"
    },
    {
      "inputs": [],
      "name": "fund",
      "outputs": [],
      "stateMutability": "payable",
      "type": "function"
    },
    {
      "inputs": [
        {
          "internalType": "uint256",
          "name": "",
          "type": "uint256"
        }
      ],
      "name": "funders",
      "outputs": [
        {
          "internalType": "address",
          "name": "",
          "type": "address"
        }
      ],
      "stateMutability": "view",
      "type": "function"
    },
    {
      "inputs": [
        {
          "internalType": "address",
          "name": "",
          "type": "address"
        }
      ],
      "name": "fundersToAmount",
      "outputs": [
        {
          "internalType": "uint256",
          "name": "",
          "type": "uint256"
        }
      ],
      "stateMutability": "view",
      "type": "function"
    },
    {
      "inputs": [
        {
          "internalType": "address",
          "name": "fundingAddress",
          "type": "address"
        }
      ],
      "name": "getAddressToAmountFunded",
      "outputs": [
        {
          "internalType": "uint256",
          "name": "",
          "type": "uint256"
        }
      ],
      "stateMutability": "view",
      "type": "function"
    },
    {
      "inputs": [],
      "name": "getFundersCount",
      "outputs": [
        {
          "internalType": "uint256",
          "name": "",
          "type": "uint256"
        }
      ],
      "stateMutability": "view",
      "type": "function"
    },
    {
      "inputs": [],
      "name": "getOwner",
      "outputs": [
        {
          "internalType": "address",
          "name": "",
          "type": "address"
        }
      ],
      "stateMutability": "view",
      "type": "function"
    },
    {
      "inputs": [],
      "name": "getPriceFee",
      "outputs": [
        {
          "internalType": "contract AggregatorV3Interface",
          "name": "",
          "type": "address"
        }
      ],
      "stateMutability": "view",
      "type": "function"
    },
    {
      "inputs": [
        {
          "internalType": "address",
          "name": "newOwner",
          "type": "address"
        }
      ],
      "name": "transferOwnership",
      "outputs": [],
      "stateMutability": "nonpayable",
      "type": "function"
    },
    {
      "inputs": [],
      "name": "withdraw",
      "outputs": [],
      "stateMutability": "payable",
      "type": "function"
    }
  ],
  "transactionHash": "0xa9ace43f92328dcb1923b1ed6dc5df1c27f14b7d8057268eaad9418b8a49e3e3",
  "args": [
    "0x694AA1769357215DE4FAC081bf1f309aDC325306"
  ],
  "numDeployments": 2,
  "solcInputHash": "b696b4a4a6c929509f0dcc6d5aeebd6f",
  "bytecode": "0x60806040523480156200001157600080fd5b50604051620011833803806200118383398181016040528101906200003791906200012a565b80600360006101000a81548173ffffffffffffffffffffffffffffffffffffffff021916908373ffffffffffffffffffffffffffffffffffffffff16021790555033600260006101000a81548173ffffffffffffffffffffffffffffffffffffffff021916908373ffffffffffffffffffffffffffffffffffffffff160217905550506200015c565b600080fd5b600073ffffffffffffffffffffffffffffffffffffffff82169050919050565b6000620000f282620000c5565b9050919050565b6200010481620000e5565b81146200011057600080fd5b50565b6000815190506200012481620000f9565b92915050565b600060208284031215620001435762000142620000c0565b5b6000620001538482850162000113565b91505092915050565b611017806200016c6000396000f3fe6080604052600436106100915760003560e01c80639f883a05116100595780639f883a051461015e578063b60d42881461019b578063be2693f0146101a5578063dc0d3dff146101af578063f2fde38b146101ec57610091565b80630343fb25146100965780633ccfd60b146100d35780635f33facd146100dd578063893d20e814610108578063920b3a7e14610133575b600080fd5b3480156100a257600080fd5b506100bd60048036038101906100b89190610a8b565b610215565b6040516100ca9190610ad1565b60405180910390f35b6100db61025d565b005b3480156100e957600080fd5b506100f26104a2565b6040516100ff9190610b4b565b60405180910390f35b34801561011457600080fd5b5061011d6104cc565b60405161012a9190610b75565b60405180910390f35b34801561013f57600080fd5b506101486104f6565b6040516101559190610ad1565b60405180910390f35b34801561016a57600080fd5b5061018560048036038101906101809190610a8b565b610503565b6040516101929190610ad1565b60405180910390f35b6101a361051b565b005b6101ad610642565b005b3480156101bb57600080fd5b506101d660048036038101906101d19190610bbc565b6107d5565b6040516101e39190610b75565b60405180910390f35b3480156101f857600080fd5b50610213600480360381019061020e9190610a8b565b610814565b005b60008060008373ffffffffffffffffffffffffffffffffffffffff1673ffffffffffffffffffffffffffffffffffffffff168152602001908152602001600020549050919050565b600260009054906101000a900473ffffffffffffffffffffffffffffffffffffffff1673ffffffffffffffffffffffffffffffffffffffff163373ffffffffffffffffffffffffffffffffffffffff16146102ed576040517f08c379a00000000000000000000000000000000000000000000000000000000081526004016102e490610c6c565b60405180910390fd5b60005b6001805490508110156103925760006001828154811061031357610312610c8c565b5b9060005260206000200160009054906101000a900473ffffffffffffffffffffffffffffffffffffffff16905060008060008373ffffffffffffffffffffffffffffffffffffffff1673ffffffffffffffffffffffffffffffffffffffff168152602001908152602001600020819055505080806001019150506102f0565b50600067ffffffffffffffff8111156103ae576103ad610cbb565b5b6040519080825280602002602001820160405280156103dc5781602001602082028036833780820191505090505b50600190805190602001906103f2929190610981565b5060003373ffffffffffffffffffffffffffffffffffffffff164760405161041990610d1b565b60006040518083038185875af1925050503d8060008114610456576040519150601f19603f3d011682016040523d82523d6000602084013e61045b565b606091505b505090508061049f576040517f08c379a000000000000000000000000000000000000000000000000000000000815260040161049690610d7c565b60405180910390fd5b50565b6000600360009054906101000a900473ffffffffffffffffffffffffffffffffffffffff16905090565b6000600260009054906101000a900473ffffffffffffffffffffffffffffffffffffffff16905090565b6000600180549050905090565b60006020528060005260406000206000915090505481565b678ac7230489e80000610559600360009054906101000a900473ffffffffffffffffffffffffffffffffffffffff16346108df90919063ffffffff16565b101561059a576040517f08c379a000000000000000000000000000000000000000000000000000000000815260040161059190610de8565b60405180910390fd5b346000803373ffffffffffffffffffffffffffffffffffffffff1673ffffffffffffffffffffffffffffffffffffffff168152602001908152602001600020819055506001339080600181540180825580915050600190039060005260206000200160009091909190916101000a81548173ffffffffffffffffffffffffffffffffffffffff021916908373ffffffffffffffffffffffffffffffffffffffff160217905550565b600260009054906101000a900473ffffffffffffffffffffffffffffffffffffffff1673ffffffffffffffffffffffffffffffffffffffff163373ffffffffffffffffffffffffffffffffffffffff16146106c9576040517f10e0797900000000000000000000000000000000000000000000000000000000815260040160405180910390fd5b6000600180548060200260200160405190810160405280929190818152602001828054801561074d57602002820191906000526020600020905b8160009054906101000a900473ffffffffffffffffffffffffffffffffffffffff1673ffffffffffffffffffffffffffffffffffffffff1681526020019060010190808311610703575b5050505050905060005b81518110156107d157600082828151811061077557610774610c8c565b5b6020026020010151905060008060008373ffffffffffffffffffffffffffffffffffffffff1673ffffffffffffffffffffffffffffffffffffffff16815260200190815260200160002081905550508080600101915050610757565b5050565b600181815481106107e557600080fd5b906000526020600020016000915054906101000a900473ffffffffffffffffffffffffffffffffffffffff1681565b600260009054906101000a900473ffffffffffffffffffffffffffffffffffffffff1673ffffffffffffffffffffffffffffffffffffffff163373ffffffffffffffffffffffffffffffffffffffff161461089b576040517f10e0797900000000000000000000000000000000000000000000000000000000815260040160405180910390fd5b80600260006101000a81548173ffffffffffffffffffffffffffffffffffffffff021916908373ffffffffffffffffffffffffffffffffffffffff16021790555050565b6000808273ffffffffffffffffffffffffffffffffffffffff1663feaf968c6040518163ffffffff1660e01b815260040160a060405180830381865afa15801561092d573d6000803e3d6000fd5b505050506040513d601f19601f820116820180604052508101906109519190610e95565b50505091505060008190506305f5e100818661096d9190610f3f565b6109779190610fb0565b9250505092915050565b8280548282559060005260206000209081019282156109fa579160200282015b828111156109f95782518260006101000a81548173ffffffffffffffffffffffffffffffffffffffff021916908373ffffffffffffffffffffffffffffffffffffffff160217905550916020019190600101906109a1565b5b509050610a079190610a0b565b5090565b5b80821115610a24576000816000905550600101610a0c565b5090565b600080fd5b600073ffffffffffffffffffffffffffffffffffffffff82169050919050565b6000610a5882610a2d565b9050919050565b610a6881610a4d565b8114610a7357600080fd5b50565b600081359050610a8581610a5f565b92915050565b600060208284031215610aa157610aa0610a28565b5b6000610aaf84828501610a76565b91505092915050565b6000819050919050565b610acb81610ab8565b82525050565b6000602082019050610ae66000830184610ac2565b92915050565b6000819050919050565b6000610b11610b0c610b0784610a2d565b610aec565b610a2d565b9050919050565b6000610b2382610af6565b9050919050565b6000610b3582610b18565b9050919050565b610b4581610b2a565b82525050565b6000602082019050610b606000830184610b3c565b92915050565b610b6f81610a4d565b82525050565b6000602082019050610b8a6000830184610b66565b92915050565b610b9981610ab8565b8114610ba457600080fd5b50565b600081359050610bb681610b90565b92915050565b600060208284031215610bd257610bd1610a28565b5b6000610be084828501610ba7565b91505092915050565b600082825260208201905092915050565b7f546869732066756e632063616e206f6e6c792062652063616c6c65642062792060008201527f6f776e6572000000000000000000000000000000000000000000000000000000602082015250565b6000610c56602583610be9565b9150610c6182610bfa565b604082019050919050565b60006020820190508181036000830152610c8581610c49565b9050919050565b7f4e487b7100000000000000000000000000000000000000000000000000000000600052603260045260246000fd5b7f4e487b7100000000000000000000000000000000000000000000000000000000600052604160045260246000fd5b600081905092915050565b50565b6000610d05600083610cea565b9150610d1082610cf5565b600082019050919050565b6000610d2682610cf8565b9150819050919050565b7f4661696c656420746f2077697468647261770000000000000000000000000000600082015250565b6000610d66601283610be9565b9150610d7182610d30565b602082019050919050565b60006020820190508181036000830152610d9581610d59565b9050919050565b7f53656e64206d6f7265204554482e000000000000000000000000000000000000600082015250565b6000610dd2600e83610be9565b9150610ddd82610d9c565b602082019050919050565b60006020820190508181036000830152610e0181610dc5565b9050919050565b600069ffffffffffffffffffff82169050919050565b610e2781610e08565b8114610e3257600080fd5b50565b600081519050610e4481610e1e565b92915050565b6000819050919050565b610e5d81610e4a565b8114610e6857600080fd5b50565b600081519050610e7a81610e54565b92915050565b600081519050610e8f81610b90565b92915050565b600080600080600060a08688031215610eb157610eb0610a28565b5b6000610ebf88828901610e35565b9550506020610ed088828901610e6b565b9450506040610ee188828901610e80565b9350506060610ef288828901610e80565b9250506080610f0388828901610e35565b9150509295509295909350565b7f4e487b7100000000000000000000000000000000000000000000000000000000600052601160045260246000fd5b6000610f4a82610ab8565b9150610f5583610ab8565b9250828202610f6381610ab8565b91508282048414831517610f7a57610f79610f10565b5b5092915050565b7f4e487b7100000000000000000000000000000000000000000000000000000000600052601260045260246000fd5b6000610fbb82610ab8565b9150610fc683610ab8565b925082610fd657610fd5610f81565b5b82820490509291505056fea2646970667358221220e7562f6d375a4c2fe55b35ea6718e704cde2682148ec0bc6822776c6c94f36e164736f6c63430008180033",
  "devdoc": {
    "author": "hermione",
    "kind": "dev",
    "methods": {},
    "title": "A contract for crowd funding",
    "version": 1
  },
  "userdoc": {
    "kind": "user",
    "methods": {},
    "notice": "This contract is to demo a sample funding contract",
    "version": 1
  },
  "storageLayout": {
    "storage": [
      {
        "astId": 326,
        "contract": "contracts/FundMe.sol:FundMe",
        "label": "fundersToAmount",
        "offset": 0,
        "slot": "0",
        "type": "t_mapping(t_address,t_uint256)"
      },
      {
        "astId": 329,
        "contract": "contracts/FundMe.sol:FundMe",
        "label": "funders",
        "offset": 0,
        "slot": "1",
        "type": "t_array(t_address)dyn_storage"
      },
      {
        "astId": 339,
        "contract": "contracts/FundMe.sol:FundMe",
        "label": "owner",
        "offset": 0,
        "slot": "2",
        "type": "t_address"
      },
      {
        "astId": 342,
        "contract": "contracts/FundMe.sol:FundMe",
        "label": "dataFeed",
        "offset": 0,
        "slot": "3",
        "type": "t_contract(AggregatorV3Interface)104"
      }
    ],
    "types": {
      "t_address": {
        "encoding": "inplace",
        "label": "address",
        "numberOfBytes": "20"
      },
      "t_array(t_address)dyn_storage": {
        "base": "t_address",
        "encoding": "dynamic_array",
        "label": "address[]",
        "numberOfBytes": "32"
      },
      "t_contract(AggregatorV3Interface)104": {
        "encoding": "inplace",
        "label": "contract AggregatorV3Interface",
        "numberOfBytes": "20"
      },
      "t_mapping(t_address,t_uint256)": {
        "encoding": "mapping",
        "key": "t_address",
        "label": "mapping(address => uint256)",
        "numberOfBytes": "32",
        "value": "t_uint256"
      },
      "t_uint256": {
        "encoding": "inplace",
        "label": "uint256",
        "numberOfBytes": "32"
      }
    }
  }
}