{
  "address": "0x1ADfd4FC8e95106B373F6B8a133479abC3867d3a",
  "abi": [
    {
      "inputs": [
        {
          "internalType": "address",
          "name": "priceFeed",
          "type": "address"
        }
      ],
      "stateMutability": "nonpayable",
      "type": "constructor"
    },
    {
      "inputs": [],
      "name": "FundMe_NotOwner",
      "type": "error"
    },
    {
      "inputs": [],
      "name": "cheaperWithdraw",
      "outputs": [],
      "stateMutability": "payable",
      "type": "function"
    },
    {
      "inputs": [],
      "name": "fund",
      "outputs": [],
      "stateMutability": "payable",
      "type": "function"
    },
    {
      "inputs": [
        {
          "internalType": "uint256",
          "name": "",
          "type": "uint256"
        }
      ],
      "name": "funders",
      "outputs": [
        {
          "internalType": "address",
          "name": "",
          "type": "address"
        }
      ],
      "stateMutability": "view",
      "type": "function"
    },
    {
      "inputs": [
        {
          "internalType": "address",
          "name": "",
          "type": "address"
        }
      ],
      "name": "fundersToAmount",
      "outputs": [
        {
          "internalType": "uint256",
          "name": "",
          "type": "uint256"
        }
      ],
      "stateMutability": "view",
      "type": "function"
    },
    {
      "inputs": [
        {
          "internalType": "address",
          "name": "fundingAddress",
          "type": "address"
        }
      ],
      "name": "getAddressToAmountFunded",
      "outputs": [
        {
          "internalType": "uint256",
          "name": "",
          "type": "uint256"
        }
      ],
      "stateMutability": "view",
      "type": "function"
    },
    {
      "inputs": [],
      "name": "getFundersCount",
      "outputs": [
        {
          "internalType": "uint256",
          "name": "",
          "type": "uint256"
        }
      ],
      "stateMutability": "view",
      "type": "function"
    },
    {
      "inputs": [],
      "name": "getPriceFee",
      "outputs": [
        {
          "internalType": "contract AggregatorV3Interface",
          "name": "",
          "type": "address"
        }
      ],
      "stateMutability": "view",
      "type": "function"
    },
    {
      "inputs": [
        {
          "internalType": "address",
          "name": "newOwner",
          "type": "address"
        }
      ],
      "name": "transferOwnership",
      "outputs": [],
      "stateMutability": "nonpayable",
      "type": "function"
    },
    {
      "inputs": [],
      "name": "withdraw",
      "outputs": [],
      "stateMutability": "payable",
      "type": "function"
    }
  ],
  "transactionHash": "0x6d298ffb46a791d0ff705ca677b07a71033446d7b03e7673d6d764c33aa340e8",
  "args": [
    "0x694AA1769357215DE4FAC081bf1f309aDC325306"
  ],
  "numDeployments": 1,
  "solcInputHash": "3efe45373e6c2784655dceb3a028e13f",
  "bytecode": "0x60806040523480156200001157600080fd5b50604051620011233803806200112383398181016040528101906200003791906200012a565b80600360006101000a81548173ffffffffffffffffffffffffffffffffffffffff021916908373ffffffffffffffffffffffffffffffffffffffff16021790555033600260006101000a81548173ffffffffffffffffffffffffffffffffffffffff021916908373ffffffffffffffffffffffffffffffffffffffff160217905550506200015c565b600080fd5b600073ffffffffffffffffffffffffffffffffffffffff82169050919050565b6000620000f282620000c5565b9050919050565b6200010481620000e5565b81146200011057600080fd5b50565b6000815190506200012481620000f9565b92915050565b600060208284031215620001435762000142620000c0565b5b6000620001538482850162000113565b91505092915050565b610fb7806200016c6000396000f3fe6080604052600436106100865760003560e01c80639f883a05116100595780639f883a0514610128578063b60d428814610165578063be2693f01461016f578063dc0d3dff14610179578063f2fde38b146101b657610086565b80630343fb251461008b5780633ccfd60b146100c85780635f33facd146100d2578063920b3a7e146100fd575b600080fd5b34801561009757600080fd5b506100b260048036038101906100ad9190610a2b565b6101df565b6040516100bf9190610a71565b60405180910390f35b6100d0610227565b005b3480156100de57600080fd5b506100e761046c565b6040516100f49190610aeb565b60405180910390f35b34801561010957600080fd5b50610112610496565b60405161011f9190610a71565b60405180910390f35b34801561013457600080fd5b5061014f600480360381019061014a9190610a2b565b6104a3565b60405161015c9190610a71565b60405180910390f35b61016d6104bb565b005b6101776105e2565b005b34801561018557600080fd5b506101a0600480360381019061019b9190610b32565b610775565b6040516101ad9190610b6e565b60405180910390f35b3480156101c257600080fd5b506101dd60048036038101906101d89190610a2b565b6107b4565b005b60008060008373ffffffffffffffffffffffffffffffffffffffff1673ffffffffffffffffffffffffffffffffffffffff168152602001908152602001600020549050919050565b600260009054906101000a900473ffffffffffffffffffffffffffffffffffffffff1673ffffffffffffffffffffffffffffffffffffffff163373ffffffffffffffffffffffffffffffffffffffff16146102b7576040517f08c379a00000000000000000000000000000000000000000000000000000000081526004016102ae90610c0c565b60405180910390fd5b60005b60018054905081101561035c576000600182815481106102dd576102dc610c2c565b5b9060005260206000200160009054906101000a900473ffffffffffffffffffffffffffffffffffffffff16905060008060008373ffffffffffffffffffffffffffffffffffffffff1673ffffffffffffffffffffffffffffffffffffffff168152602001908152602001600020819055505080806001019150506102ba565b50600067ffffffffffffffff81111561037857610377610c5b565b5b6040519080825280602002602001820160405280156103a65781602001602082028036833780820191505090505b50600190805190602001906103bc929190610921565b5060003373ffffffffffffffffffffffffffffffffffffffff16476040516103e390610cbb565b60006040518083038185875af1925050503d8060008114610420576040519150601f19603f3d011682016040523d82523d6000602084013e610425565b606091505b5050905080610469576040517f08c379a000000000000000000000000000000000000000000000000000000000815260040161046090610d1c565b60405180910390fd5b50565b6000600360009054906101000a900473ffffffffffffffffffffffffffffffffffffffff16905090565b6000600180549050905090565b60006020528060005260406000206000915090505481565b678ac7230489e800006104f9600360009054906101000a900473ffffffffffffffffffffffffffffffffffffffff163461087f90919063ffffffff16565b101561053a576040517f08c379a000000000000000000000000000000000000000000000000000000000815260040161053190610d88565b60405180910390fd5b346000803373ffffffffffffffffffffffffffffffffffffffff1673ffffffffffffffffffffffffffffffffffffffff168152602001908152602001600020819055506001339080600181540180825580915050600190039060005260206000200160009091909190916101000a81548173ffffffffffffffffffffffffffffffffffffffff021916908373ffffffffffffffffffffffffffffffffffffffff160217905550565b600260009054906101000a900473ffffffffffffffffffffffffffffffffffffffff1673ffffffffffffffffffffffffffffffffffffffff163373ffffffffffffffffffffffffffffffffffffffff1614610669576040517f10e0797900000000000000000000000000000000000000000000000000000000815260040160405180910390fd5b600060018054806020026020016040519081016040528092919081815260200182805480156106ed57602002820191906000526020600020905b8160009054906101000a900473ffffffffffffffffffffffffffffffffffffffff1673ffffffffffffffffffffffffffffffffffffffff16815260200190600101908083116106a3575b5050505050905060005b815181101561077157600082828151811061071557610714610c2c565b5b6020026020010151905060008060008373ffffffffffffffffffffffffffffffffffffffff1673ffffffffffffffffffffffffffffffffffffffff168152602001908152602001600020819055505080806001019150506106f7565b5050565b6001818154811061078557600080fd5b906000526020600020016000915054906101000a900473ffffffffffffffffffffffffffffffffffffffff1681565b600260009054906101000a900473ffffffffffffffffffffffffffffffffffffffff1673ffffffffffffffffffffffffffffffffffffffff163373ffffffffffffffffffffffffffffffffffffffff161461083b576040517f10e0797900000000000000000000000000000000000000000000000000000000815260040160405180910390fd5b80600260006101000a81548173ffffffffffffffffffffffffffffffffffffffff021916908373ffffffffffffffffffffffffffffffffffffffff16021790555050565b6000808273ffffffffffffffffffffffffffffffffffffffff1663feaf968c6040518163ffffffff1660e01b815260040160a060405180830381865afa1580156108cd573d6000803e3d6000fd5b505050506040513d601f19601f820116820180604052508101906108f19190610e35565b50505091505060008190506305f5e100818661090d9190610edf565b6109179190610f50565b9250505092915050565b82805482825590600052602060002090810192821561099a579160200282015b828111156109995782518260006101000a81548173ffffffffffffffffffffffffffffffffffffffff021916908373ffffffffffffffffffffffffffffffffffffffff16021790555091602001919060010190610941565b5b5090506109a791906109ab565b5090565b5b808211156109c45760008160009055506001016109ac565b5090565b600080fd5b600073ffffffffffffffffffffffffffffffffffffffff82169050919050565b60006109f8826109cd565b9050919050565b610a08816109ed565b8114610a1357600080fd5b50565b600081359050610a25816109ff565b92915050565b600060208284031215610a4157610a406109c8565b5b6000610a4f84828501610a16565b91505092915050565b6000819050919050565b610a6b81610a58565b82525050565b6000602082019050610a866000830184610a62565b92915050565b6000819050919050565b6000610ab1610aac610aa7846109cd565b610a8c565b6109cd565b9050919050565b6000610ac382610a96565b9050919050565b6000610ad582610ab8565b9050919050565b610ae581610aca565b82525050565b6000602082019050610b006000830184610adc565b92915050565b610b0f81610a58565b8114610b1a57600080fd5b50565b600081359050610b2c81610b06565b92915050565b600060208284031215610b4857610b476109c8565b5b6000610b5684828501610b1d565b91505092915050565b610b68816109ed565b82525050565b6000602082019050610b836000830184610b5f565b92915050565b600082825260208201905092915050565b7f546869732066756e632063616e206f6e6c792062652063616c6c65642062792060008201527f6f776e6572000000000000000000000000000000000000000000000000000000602082015250565b6000610bf6602583610b89565b9150610c0182610b9a565b604082019050919050565b60006020820190508181036000830152610c2581610be9565b9050919050565b7f4e487b7100000000000000000000000000000000000000000000000000000000600052603260045260246000fd5b7f4e487b7100000000000000000000000000000000000000000000000000000000600052604160045260246000fd5b600081905092915050565b50565b6000610ca5600083610c8a565b9150610cb082610c95565b600082019050919050565b6000610cc682610c98565b9150819050919050565b7f4661696c656420746f2077697468647261770000000000000000000000000000600082015250565b6000610d06601283610b89565b9150610d1182610cd0565b602082019050919050565b60006020820190508181036000830152610d3581610cf9565b9050919050565b7f53656e64206d6f7265204554482e000000000000000000000000000000000000600082015250565b6000610d72600e83610b89565b9150610d7d82610d3c565b602082019050919050565b60006020820190508181036000830152610da181610d65565b9050919050565b600069ffffffffffffffffffff82169050919050565b610dc781610da8565b8114610dd257600080fd5b50565b600081519050610de481610dbe565b92915050565b6000819050919050565b610dfd81610dea565b8114610e0857600080fd5b50565b600081519050610e1a81610df4565b92915050565b600081519050610e2f81610b06565b92915050565b600080600080600060a08688031215610e5157610e506109c8565b5b6000610e5f88828901610dd5565b9550506020610e7088828901610e0b565b9450506040610e8188828901610e20565b9350506060610e9288828901610e20565b9250506080610ea388828901610dd5565b9150509295509295909350565b7f4e487b7100000000000000000000000000000000000000000000000000000000600052601160045260246000fd5b6000610eea82610a58565b9150610ef583610a58565b9250828202610f0381610a58565b91508282048414831517610f1a57610f19610eb0565b5b5092915050565b7f4e487b7100000000000000000000000000000000000000000000000000000000600052601260045260246000fd5b6000610f5b82610a58565b9150610f6683610a58565b925082610f7657610f75610f21565b5b82820490509291505056fea26469706673582212204612740ea1f36b9d00cf1da3a0d365dca809aff84aabd937d75fd3cf34b9574764736f6c63430008180033",
  "devdoc": {
    "author": "hermione",
    "kind": "dev",
    "methods": {},
    "title": "A contract for crowd funding",
    "version": 1
  },
  "userdoc": {
    "kind": "user",
    "methods": {},
    "notice": "This contract is to demo a sample funding contract",
    "version": 1
  },
  "storageLayout": {
    "storage": [
      {
        "astId": 326,
        "contract": "contracts/FundMe.sol:FundMe",
        "label": "fundersToAmount",
        "offset": 0,
        "slot": "0",
        "type": "t_mapping(t_address,t_uint256)"
      },
      {
        "astId": 329,
        "contract": "contracts/FundMe.sol:FundMe",
        "label": "funders",
        "offset": 0,
        "slot": "1",
        "type": "t_array(t_address)dyn_storage"
      },
      {
        "astId": 339,
        "contract": "contracts/FundMe.sol:FundMe",
        "label": "owner",
        "offset": 0,
        "slot": "2",
        "type": "t_address"
      },
      {
        "astId": 342,
        "contract": "contracts/FundMe.sol:FundMe",
        "label": "dataFeed",
        "offset": 0,
        "slot": "3",
        "type": "t_contract(AggregatorV3Interface)104"
      }
    ],
    "types": {
      "t_address": {
        "encoding": "inplace",
        "label": "address",
        "numberOfBytes": "20"
      },
      "t_array(t_address)dyn_storage": {
        "base": "t_address",
        "encoding": "dynamic_array",
        "label": "address[]",
        "numberOfBytes": "32"
      },
      "t_contract(AggregatorV3Interface)104": {
        "encoding": "inplace",
        "label": "contract AggregatorV3Interface",
        "numberOfBytes": "20"
      },
      "t_mapping(t_address,t_uint256)": {
        "encoding": "mapping",
        "key": "t_address",
        "label": "mapping(address => uint256)",
        "numberOfBytes": "32",
        "value": "t_uint256"
      },
      "t_uint256": {
        "encoding": "inplace",
        "label": "uint256",
        "numberOfBytes": "32"
      }
    }
  }
}